S01700004E6F6168496E64697669647565656C2E7372656315
S11300004EC000005CC000005AC0000058C0000090
S113001056C0000054C0000052C0000050C0000090
S11300204EC000004CC000004AC0000048C00000A0
S113003046C0000044C0000042C0000040C00000B0
S11300403EC000003CC000003AC0000038C00000C0
S113005036C0000034C0000032C0000030C00000D0
S11300602EC000002CC000002AC0000028C00000E0
S113007026C0000024C0000022C0000020C00000F0
S11300801EC000001CC000001AC00000B401C90159
S1130090DF01F30107021B022F024302570211245E
S11300A01FBECFEFD0E1DEBFCDBF21E0A0E0B1E0C5
S11300B001C01D92AC32B207E1F7EAD2F5C2A0CF7B
S11300C0181619066CF420E030E0E9EFF0E03197FF
S11300D0F1F700C000002F5F3F4F82179307A9F785
S11300E00895CF93DF938FEF8ABB87BB84BB81BB1B
S11300F082B980936100809364001BBA18BA15BA60
S113010012BA13B8A2E6B0E01C9210926500E8E2BD
S1130110F1E08BE390E0918380838FEF90E0938311
S11301208283E0E0F1E0409128015091290160913F
S11301302A0170912B014083518362837383CCE144
S1130140D1E028E330E0398328839B838A8340917C
S11301501C0150911D0160911E0170911F01448387
S1130160558366837783C0E2D1E025E330E03983A9
S113017028839B838A8340912001509121016091BF
S11301802201709123014087518762877387C4E2FB
S1130190D1E022E330E0398328839B838A83409132
S11301A02401509125016091260170912701448713
S11301B0558766877787C4E1D1E023E230E039834D
S11301C028839B838A834091140150911501609187
S11301D0160170911701408B518B628B738BB58B19
S11301E0A48B978B868BDF91CF910895EF92FF922A
S11301F00F931F93CF93DF937C0108E010E0C1E0DD
S1130200D0E0F701C08388EE93E05ADFCC0FDD1F06
S113021001501109B1F7DF91CF911F910F91FF9018
S1130220EF900895AF92BF92CF92DF92EF92FF9238
S11302300F931F93CF93DF938C01672BC9F0C0E01A
S1130240D1E00F2EF8E1AF2EF1E0BF2EF02DCC243B
S1130250CA94D12CFF24FA94DB82CA82E881F98102
S1130260F082C8012DDF2496AC16BD06A9F713C091
S1130270C0E0D1E00F2EF8E1EF2EF1E0FF2EF02DDB
S11302801B821A82E881F9811082C80119DF249641
S1130290CE15DF05A9F7DF91CF911F910F91FF9044
S11302A0EF90DF90CF90BF90AF900895FC01CB0109
S11302B0A081B18122812C9303CF08952F923F9284
S11302C04F925F926F927F928F929F92AF92BF9262
S11302D0CF92DF92EF92FF920F931F93CF93DF930E
S11302E000D000D01F92CDB7DEB79A83898340E057
S11302F051E008E111E05C834B83AB81BC81139630
S11303001C921E921297ED91FC91108289819A8120
S1130310D7DEEB81FC813496FC83EB83E017F10795
S113032061F7C12CD12CAA24AA94B12C0F2EFEEF74
S11303308F2E912CF02D0F2EFCEF6F2E712CF02DA3
S11303400F2EF8EF4F2E512CF02D00EF10E00F2E52
S1130350F0EC2F2E312CF02DFFC0E930F10508F020
S1130360BBC0EA5BFF4F97C1FC01EE0FFF1FEE0F0E
S1130370FF1FE050FF4F138212820190F081E02DA5
S113038010820196863091050CF4B9C0CB80DC80D4
S1130390D9C0FC01EE0FFF1FEE0FFF1FE050FF4F0F
S11303A040E850E0538342830190F081E02D308394
S11303B0019686309105C4F2CB80DC80C3C0FC0179
S11303C0EE0FFF1FEE0FFF1FE050FF4F338222821C
S11303D00190F081E02D6083019686309105CCF286
S11303E0CB80DC80AFC0FC01EE0FFF1FEE0FFF1FC0
S11303F0E050FF4F138302830190F081E02D2083AE
S1130400019686309105DCF2CB80DC809BC0FC0138
S1130410EE0FFF1FEE0FFF1FE050FF4F1383028309
S11304200190F081E02D2083019686309105DCF265
S1130430CB80DC8087C0FC01EE0FFF1FEE0FFF1F97
S1130440E050FF4F538242820190F081E02D70838F
S1130450019686309105DCF2CB80DC8073C0FC0110
S1130460EE0FFF1FEE0FFF1FE050FF4F73826282FB
S11304700190F081E02DF082019686309105DCF246
S1130480CB80DC805FC0FC01EE0FFF1FEE0FFF1F6F
S1130490E050FF4F938282820190F081E02DE08250
S11304A0019686309105DCF2CB80DC804BC0FC01E8
S11304B0EE0FFF1FEE0FFF1FE050FF4FB382A2822B
S11304C00190F081E02D5FEF508301968630910515
S11304D0D4F2CB80DC8036C0E830F10564F0DC0176
S11304E0AA0FBB1FAA0FBB1FA050BF4F1396BC92ED
S11304F0AE92129711C01E161F0674F002C0EFEFE1
S1130500FFEFDC01AA0FBB1FAA0FBB1FA050BF4FF8
S113051013961C921E921297DC01AA0FBB1FAA0FFE
S1130520BB1FA050BF4F4D915C9111971296CC9078
S1130530DA01CC9231970196863091050CF40DCFF7
S1130540CB80DC8089819A81BBDDBFEFCB1ADB0ACB
S1130550EFE0CE16D10491F0F60180E090E00F2E8A
S1130560FEEFEF2EF02D0F2EFCEFFF2EF02D78EF87
S113057020EF60EC30E8DC82CB82EFCE0F900F905E
S11305800F900F900F90DF91CF911F910F91FF90DB
S1130590EF90DF90CF90BF90AF909F908F907F901F
S11305A06F905F904F903F902F900895CF92DF927D
S11305B0EF92FF920F931F93CF93DF938B01880FDA
S11305C0991F880F991FEC01C050DF4F88819981D2
S11305D00DDEB801CE016ADE0F2EF6E6EF2EF12C09
S11305E0F02DFB82EA82B801CE0160DE0F2EF8E125
S11305F0CF2ED12CF02DDB82CA82B801CE0156DE7B
S1130600FB82EA82B801CE0151DE88819981EEDD58
S1130610FB82EA82B801CE0149DEDB82CA82B801DC
S1130620CE0144DEFB82EA82B801CE013FDEDF91D7
S1130630CF911F910F91FF90EF90DF90CF9008958D
S1130640CF93DF9361E070E084EF91E0EBDD60E055
S113065070E084EF91E0E6DDC0E0D0E060E273E0BA
S1130660CE01A4DF2196C630D105C1F760E070E069
S113067084EF91E0D7DDC4E6D0E0CE011FDECC5993
S1130680DF4FCC3484E0D807C1F7DF91CF910895D0
S113069028DDD6DFFECFEE0FFF1F0024001C0BBEAB
S10F06A00790F691E02D0994F894FFCF28
S9030000FC
